:100000000A128A11CD2F64008001840A04060319A4
:100010000034040604280C308316031399009A0157
:1000200083160317871183160313181118139816D4
:100030001812831203139817181318169811080032
:10004000831203133A08803AF0003408803A7002B1
:10005000031D2C2833083902031847288312031381
:100060003909F0003A09F100F00A0319F10A3308DE
:100070007007BB0034080318340A7107BC00200362
:10008000031D4428A0010800A001A00A0800831253
:1000900003133408803AF0003A08803A7002031DD6
:1000A00053283908330203187628831203133309BF
:1000B000F0003409F100F00A0319F10A3908700759
:1000C000BB003A0803183A0A7107BC0020088316DF
:1000D00003135E0603190800831203132003031D94
:1000E0007328A0010800A001A00A080083120313CE
:1000F0003A083406031D7E2839083306031D08001C
:100100003309F0003409F100F00A0319F10A390843
:100110007007BB003A0803183A0A7107BC000800D0
:10012000831203133E08803AF0003608803A7002CA
:10013000031D9C2835083D020318B72883120313BA
:100140003D09F0003E09F100F00A0319F10A3508F3
:100150007007BF0036080318360A7107C000250370
:10016000031DB428A5010800A501A50A08008312F3
:1001700003133608803AF0003E08803A7002031DEF
:10018000C3283D0835020318E628831203133509F6
:10019000F0003609F100F00A0319F10A3D08700772
:1001A000BF003E0803183E0A7107C00025088316E9
:1001B00003135F0603190800831203132503031DAD
:1001C000E328A5010800A501A50A0800831203136E
:1001D0003E083606031DEE283D083506031D0800BF
:1001E0003509F0003609F100F00A0319F10A3D085B
:1001F0007007BF003E0803183E0A7107C0000800E0
:1002000083120313D4000130CE000030CF00D001A0
:10021000D101D201D301D201D30154080A128A15A7
:1002200059240A128A117108831203135302031D01
:100230001B297008520203185B2952085304031D3E
:10024000302952085407FA007A0884002D308313AD
:100250000006031D3029FF30CE00FF30CF005429A7
:1002600052085407FA007A08840083130008D03E2D
:10027000CC00FF3003180030CD005108F1005008C9
:10028000F0000A30F2000030F3000A128A15D2237F
:100290000A128A11831203134C087007D0004D080C
:1002A00003184D0A7107D1000130D2070318D30A91
:1002B0000030D3070D295108F1005008F0004F0815
:1002C000F3004E08F2000A128A15D2237108831235
:1002D0000313D1007008D0005108F9005008F8004D
:1002E0000800F901F71F8729F901F90AFF30F0002A
:1002F000FF30F1007708F3007608F2000A128A1541
:10030000D2230A128A117108F7007008F600FC0166
:10031000FB01FA017708803AFF0080307F02031D5D
:10032000932964307602031CAA299C30F60703182F
:10033000F70AFF30F7070130F8007808FC078A2930
:10034000F630F6070318F70AFF30F7070130F80018
:100350007808FB077708803AFF0080307F02031D92
:10036000B3290A3076020318A0297608F800780825
:10037000FA007C08031DC4297B08031DC429203012
:10038000F8007808FB00C8293030F8007808FB072F
:100390007C08031DD0292030F8007808FC00D429FF
:1003A0003030F8007808FC073030F8007808FA0799
:1003B0007903031DE1292D300A128A1567230A12D9
:1003C0008A1120307C060319EB297C080A128A1551
:1003D00067230A128A1120307B060319F5297B084E
:1003E0000A128A1567230A128A117A080A128A15D4
:1003F0006723080083120313D401D501D601D70166
:10040000CC01CD01560357040319F42AA001A00A18
:100410002108FA007A08F4002208FB00FC017B089E
:10042000F5007C08F60020080A128A1504250A1235
:100430008A110A128A1597230A128A11700371040D
:10044000031D982A83120313CE01CF01460303191B
:10045000562AA0012108FA007A08F4002208FB00BD
:10046000FC017B08F5007C08F60020080A128A15BA
:1004700004250A128A110A128A1597230A128A1170
:10048000023070067104031D4D2A83120313C60146
:10049000C60A4F08D5004E08D4000130831203135A
:1004A000CE070318CF0A0030CF07262A0B30FC00F6
:1004B0002630FB006630FA00FA0B5C2AFB0B5C2A44
:1004C000FC0B5C2A632A83120313D001D10151086B
:1004D000803AFA005508803A7A02031D712A5408BE
:1004E00050020318912A83120313A001A00A2108C5
:1004F000FA007A08F4002208FB00FC017B08F500F2
:100500007C08F60020080A128A1504250A128A11AE
:10051000013083120313D0070318D10A0030D1072A
:10052000672A83120313A0010130D6000030D700E0
:100530000A128A1597230A128A1102307006710472
:10054000031DE82A83120313D201D30145030319C3
:10055000D52AA0012108FA007A08F4002208FB003D
:10056000FC017B08F5007C08F60020080A128A15B9
:1005700004250A128A110A128A1597230A128A116F
:1005800070037104031DCC2A83120313C501C50A2D
:100590005308D5005208D400013083120313D20748
:1005A0000318D30A0030D307A62AA001A00A0130FD
:1005B000D6000030D7000B30FC002630FB00663040
:1005C000FA00FA0BE12AFB0BE12AFC0BE12AE82AEC
:1005D000013083120313CC070318CD0A0030CD0776
:1005E00056035704031D062A5508F9005408F8005D
:1005F000080083120313D401D501D601D701CC0121
:10060000CD01560357040319F32BA501A50A2608AB
:10061000FA007A08F4002708FB00FC017B08F500CB
:100620007C08F60025080A128A153A250A128A1152
:100630000A128A1597230A128A1170037104031D86
:10064000972B83120313CE01CF0148030319552BB7
:10065000A5012608FA007A08F4002708FB00FC012F
:100660007B08F5007C08F60025080A128A153A2551
:100670000A128A110A128A1597230A128A11023065
:1006800070067104031D4C2B83120313C801C80AA2
:100690004F08D5004E08D400013083120313CE0753
:1006A0000318CF0A0030CF07252B0B30FC00263073
:1006B000FB006630FA00FA0B5B2BFB0B5B2BFC0B91
:1006C0005B2B622B83120313D001D1015108803AB6
:1006D000FA005508803A7A02031D702B5408500224
:1006E0000318902B83120313A501A50A2608FA000C
:1006F0007A08F4002708FB00FC017B08F5007C0861
:10070000F60025080A128A153A250A128A110130C4
:1007100083120313D0070318D10A0030D107662BC8
:1007200083120313A5010130D6000030D7000A124E
:100730008A1597230A128A11023070067104031D6C
:10074000E72B83120313D201D30147030319D42BE0
:10075000A5012608FA007A08F4002708FB00FC012E
:100760007B08F5007C08F60025080A128A153A2550
:100770000A128A110A128A1597230A128A11700323
:100780007104031DCB2B83120313C701C70A53083F
:10079000D5005208D400013083120313D207031886
:1007A000D30A0030D307A52BA501A50A0130D60036
:1007B0000030D7000B30FC002630FB006630FA001A
:1007C000FA0BE02BFB0BE02BFC0BE02BE72B0130B3
:1007D00083120313CC070318CD0A0030CD0756034C
:1007E0005704031D052B5508F9005408F8000800AC
:1007F00083120313D401D501D601D701CC01CD0159
:10080000560357040319F22CAA01AA0A2B08FA006E
:100810007A08F4002B08FB00FC017B08F5007C083B
:10082000F6002A080A128A1570250A128A110A127D
:100830008A1597230A128A1170037104031D962CDE
:1008400083120313CE01CF014A030319542CAA01CA
:100850002B08FA007A08F4002C08FB00FC017B0846
:10086000F5007C08F6002A080A128A1570250A127B
:100870008A110A128A1597230A128A110230700609
:100880007104031D4B2C83120313CA01CA0A4F08BB
:10089000D5004E08D400013083120313CE0703188D
:1008A000CF0A0030CF07242C0B30FC002630FB0091
:1008B0006630FA00FA0B5A2CFB0B5A2CFC0B5A2C04
:1008C000612C83120313D001D1015108803AFA0040
:1008D0005508803A7A02031D6F2C54085002031801
:1008E0008F2C83120313AA01AA0A2B08FA007A0894
:1008F000F4002C08FB00FC017B08F5007C08F600E6
:100900002A080A128A1570250A128A1101308312E8
:100910000313D0070318D10A0030D107652C8312C6
:100920000313AA010130D6000030D7000A128A153D
:1009300097230A128A11023070067104031DE62CF7
:1009400083120313D201D30149030319D32CAA0143
:100950002B08FA007A08F4002C08FB00FC017B0845
:10096000F5007C08F6002A080A128A1570250A127A
:100970008A110A128A1597230A128A1170037104C8
:10098000031DCA2C83120313C901C90A5308D500D9
:100990005208D400013083120313D2070318D30A7C
:1009A0000030D307A42CAA01AA0A0130D6000030D7
:1009B000D7000B30FC002630FB006630FA00FA0B43
:1009C000DF2CFB0BDF2CFC0BDF2CE62C0130831221
:1009D0000313CC070318CD0A0030CD075603570484
:1009E000031D042C5508F9005408F8000800831270
:1009F000031385018601870188018901831603138A
:100A00008501673086008030870088018901831660
:100A10000317880189010A128A110B200A128A1110
:100A200083120313A001A00AA101A10AA201A20A34
:100A3000A501A50AA601A60AA701A70AAA01AA0A52
:100A4000AB01AB0AAC01AC0A0A128A11FA210A12F4
:100A50008A11790883160313D9007808D800831205
:100A600003132008DB005B0883160313DE000A1261
:100A70008A11F9220A128A11790883160313DB00FE
:100A80007808DA00831203132508DB005B0883165D
:100A90000313DF000A128A11F8230A128A11790857
:100AA00083160313DD007808DC00831203132A0881
:100AB000DB005B08EF0083160313E001D1300A125C
:100AC0008A1595270A128A116C300A128A110021A0
:100AD0000A128A11790883120313B0007808AF0054
:100AE0003008F7002F08F6000A128A1171210A1245
:100AF0008A11C5300A128A1100210A128A11790856
:100B000083120313B2007808B1003208F7003108ED
:100B1000F6000A128A1171210A128A11C8300A12CB
:100B20008A15D1240A128A113830F1008030F2007F
:100B30000A128A1536240A128A11C830F1000030D0
:100B4000F2000A128A1536240A128A1148308312DA
:100B50000313DB005B08F000C8300A128A15A724D3
:100B60000A128A1170087104031DBC2DC8300A12C4
:100B70008A1534270A128A11443083120313DB00CA
:100B80005B08F000C8300A128A15A7240A128A11DD
:100B900070087104031DD02D83160313E001E00AD1
:100BA0008316031360030319C42F6C3083120313DD
:100BB000D5000030D600831603135908831203139F
:100BC000D80083160313580883120313D700B030DC
:100BD0000A128A1100210A128A117908831203135A
:100BE000DA007808D9000A128A15F3230A128A114A
:100BF000831203135608BA005508B9000A128A1561
:100C000070230A128A112330F1008030F2000A1298
:100C10008A1536240A128A11831203133A08F70040
:100C20003908F6000A128A1171210A128A11C53098
:100C300083120313D5000030D600831603135B081C
:100C400083120313D800831603135A088312031365
:100C5000D700B7300A128A1100210A128A117908C6
:100C600083120313DA007808D9000A128A15F323D5
:100C70000A128A11831203135608BE005508BD00DC
:100C80000A128A1570230A128A112A30F100803064
:100C9000F2000A128A1536240A128A1183120313EB
:100CA0003E08F7003D08F6000A128A1171210A1267
:100CB0008A11BE300A128A1100210A128A1179089B
:100CC00083120313C2007808C1000A128A15702328
:100CD0000A128A113130F1008030F2000A128A15AE
:100CE00036240A128A11831203134208F7004108BE
:100CF000F6000A128A1171210A128A110A128A1147
:100D000020200A128A110A128A1570230A128A11E7
:100D10001130F1008030F2000A128A1536240A12CE
:100D20008A11831203133C08F7003B08F6000A12ED
:100D30008A1171210A128A110A128A1190200A124C
:100D40008A110A128A1570230A128A111A30F100C8
:100D50008030F2000A128A1536240A128A11831290
:100D600003134008F7003F08F6000A128A117121A8
:100D70000A128A11831203133C08F1003B08F000A9
:100D80004008F3003F08F2004408F5004308F4006F
:100D90000A128A15A6250A128A11710883120313F2
:100DA000DF007008DE00E601E701E801E901E0018B
:100DB000E101EA01EB015F08803ADB006B08803A51
:100DC0005B02031DE52E6A085E02031C572F831287
:100DD00003136B08F1006A08F0003C08F3003B08BD
:100DE000F2000A128A15AA230A128A1171088312C4
:100DF0000313E7007008E6006B08F1006A08F000D2
:100E00004008F3003F08F2000A128A15AA230A12CA
:100E10008A11710883120313E9007008E80067085B
:100E2000F1006608F0006908F3006808F200610844
:100E3000F5006008F4000A128A1514240A128A11B7
:100E40008312031366036704031D372F2108DB0099
:100E50005B08F4002208DC00DD015C08F5005D0899
:100E6000F60020080A128A1504250A128A11831234
:100E7000031368036904031D4E2F2608DB005B087B
:100E8000F4002708DC00DD015C08F5005D08F600D1
:100E900025080A128A153A250A128A11013083128E
:100EA0000313EA070318EB0A0030EB07DB2E83126B
:100EB0000313E201E3014208803ADB006308803A51
:100EC0005B02031D652F62084102031C872F8312FA
:100ED00003136F08DB005B08AA002B08DB005B082C
:100EE000F4002C08DC00DD015C08F5005D08F6006C
:100EF0002A080A128A1570250A128A1101308312F3
:100F00000313E2070318E30A0030E3075B2F8312A1
:100F10000313E401E5014208803ADB006508803AEA
:100F20005B02031D952F64084102031CBA2F831234
:100F300003132A03031D9E2FAA01A02FAA01AA0AA8
:100F40002B08DB005B08F4002C08DC00DD015C08EA
:100F5000F5005D08F6002A080A128A1570250A12A3
:100F60008A11013083120313E4070318E50A0030E5
:100F7000E5078B2F831203133A08B4003908B30036
:100F80003E08B6003D08B500831603136003031D39
:100F90008E2D8312031386115B2D83132030840062
:100FA0004C300A128A1103200A128A11C8308400B8
:100FB000D8300A128A1103200A128A11C830FD00A3
:100FC0000C30FE007F30FF00A03084000A128A152A
:100FD0008A230A128A116F30FD000B30FE00643044
:100FE000FF006C3084000A128A158A230A128A11C3
:100FF0000A128A156323FD0083010A128A11F72C55
:10100000FF1B0A2883137F1883170008840A03191B
:10101000FF0A080008308A000408840A82070034A6
:10102000653463346F342034723469346334653426
:101030007A3469346F346E3465343A342034003491
:1010400074346F3464346F34203458343A34203478
:10105000003474346F3464346F34203459343A3487
:1010600020340034653463346F3458343A342034D7
:101070000034653463346F3459343A3420340034E6
:10108000653463346F345A343A3420340034653470
:1010900063346F343A34203400347234653461344C
:1010A00064347934003465346E34643400346F341D
:0410B0006B34003469
:1016C600C834303430343034F000831203130C1E27
:1016D600682B0C127008990008000D300A128A1542
:1016E60067230A128A150A300A128A156723080028
:1016F60083120313981C812B181218168C1E812B2B
:101706008C121A0808007E088A007F088200862349
:101716000A128A158000840A04087D06031900341B
:10172600FF0A0319FE0A8A2B83120313061EA02B37
:101736000130F0000030F1000800861EA72B0230B1
:10174600F0000030F1000800F001F1010800710816
:10175600803AF4007308803A7402031DB42B7208B1
:1017660070020318BB2B0130F0000030F1000800B6
:10177600F001F1010800F200F30172087302031888
:1017860008000330F1009730F000F00BC82BF10B86
:10179600C82BCD2B0130F0007008F307C02BF401E5
:1017A600F501701CDC2B7208F4070318F50A7308A0
:1017B600F50701300310F20DF30DFF3E031DDD2B7F
:1017C60001300310F10CF00CFF3E031DE42B7008F2
:1017D6007104031DD42B7508F1007408F00008008D
:1017E600831203135608F7005508F6005808F1004F
:1017F6005708F0005A08F3005908F2000A128A1531
:10180600D2230A128A157108F9007008F8000A1224
:101816008A15D926770883120313D6007608D500D1
:10182600080072087007F70073080318730A710737
:10183600F800023077067804031D292C0130831244
:101846000313AB00A600F6007608A1007703780420
:10185600031D0800023083120313AB00A600F60036
:101866007608A1000800720883120313FF007108AE
:1018760084000A128A1500200A128A15003A0319F2
:101886000800720883120313FF00710884000A120D
:101896008A1500200A128A150A128A1567230A1267
:1018A6008A150130F1070318F20A362CF60076087D
:1018B600F2007208F7007708840083130008031902
:1018C600692C0130F2007208F7075E2C7608F200E8
:1018D6000030F300F209F309F20A0319F30A770854
:1018E600F4000030F50072087407F000730803185E
:1018F600730A7507F100080001340034023400341D
:1019060004340034083400341034003420340034F5
:101916002034003420340034303430343034003451
:101926000034003400343034303430340034003481
:101936000034003430343034303400340034003471
:101946000034303430343034F500B12C0130F2003C
:101956007208F5070130F2007208F0077508840076
:1019660083130008F200700884000A128A150A2000
:101976000A128A15FF3A013E7207F3007308F40053
:101986007408031DCB2C750884000008031DA92CC0
:101996007408F000F101F01BF1030800F200F301F6
:1019A6000A128A157B230A128A15F0007008F400C1
:1019B6000D3074060319E32C0A307406031DEB2C54
:1019C60073087207F0007008840083138001080012
:1019D60008307406031DF52C73080319F52C013025
:1019E600F302D32C7408F00073087207F100710833
:1019F60084007008831380000130F0007008F3073C
:101A0600D32CF7007608F1007508F0000A128A1543
:101A1600E9250A128A157703031D242D8312031361
:101A26008514051474080A128A15BE230A128A152B
:101A3600831203138510051474080A128A15BE232F
:101A460008007708031D0800831203138514051088
:101A560074080A128A15BE230A128A158312031302
:101A66008510051074080A128A15BE230800F700AF
:101A76007608F1007508F0000A128A1539260A124E
:101A86008A157703031D5A2D83120313091485162D
:101A960074080A128A15BE230A128A1583120313C2
:101AA6000910851674080A128A15BE2308007708DD
:101AB600031D0800831203130914851274080A1201
:101AC6008A15BE230A128A1583120313091085127A
:101AD60074080A128A15BE230800F7007608F1007A
:101AE6007508F0000A128A1589260A128A157703E4
:101AF600031D902D831203130715871474080A1209
:101B06008A15BE230A128A15831203130711871436
:101B160074080A128A15BE2308007708031D0800F8
:101B2600831203130715871074080A128A15BE2339
:101B36000A128A15831203130711871074080A12F2
:101B46008A15BE230800FB01FC017308803AF600E3
:101B56007108803A7602031DB22D70087202031CCA
:101B6600CC2D7508803AF6007308803A7602031D7C
:101B7600BE2D72087402031CC42D7508F800740883
:101B8600C72D7308F8007208F7007808FC0077087C
:101B9600E32D7508803AF6007108803A7602031D37
:101BA600D62D70087402031CDC2D7508FA00740823
:101BB600DF2D7108FA007008F9007A08FC00790830
:101BC600FB007C08F1007B08F0000800700371043C
:101BD600031DF22D83120313051285110511023020
:101BE60070067104031DFC2D83120313051685115F
:101BF6000511033070067104031D062E83120313AC
:101C0600051285150511043070067104031D102E8A
:101C16008312031305168515051105307006710428
:101C2600031D1A2E8312031305128511051506309E
:101C360070067104031D242E8312031305168511E5
:101C46000515073070067104031D2E2E831203132B
:101C5600051285150515083070067104031D080068
:101C66008312031305168515051508007003710404
:101C7600031D422E83120313071009118910023027
:101C860070067104031D4C2E8312031307140911E9
:101C96008910033070067104031D562E8312031338
:101CA600071009158910043070067104031D602E93
:101CB6008312031307140915891005307006710481
:101CC600031D6A2E831203130710091189140630A7
:101CD60070067104031D742E831203130714091171
:101CE6008914073070067104031D7E2E83120313B8
:101CF600071009158914083070067104031D0800C1
:101D0600831203130714091589140800700371045C
:101D1600031D922E831203138810081087110230B8
:101D260070067104031D9C2E831203138814081079
:101D36008711033070067104031DA62E8312031348
:101D4600881008148711043070067104031DB02E24
:101D56008312031388140814871105307006710462
:101D6600031DBA2E83120313881008108715063038
:101D760070067104031DC42E831203138814081001
:101D86008715073070067104031DCE2E83120313C8
:101D9600881008148715083070067104031D0800A2
:101DA600831203138814081487150800831203137B
:101DB600CD01F71FE52EF609F709F60A0319F70A0A
:101DC600CD01CD0AF91FF02EF809F909F80A031911
:101DD600F90A0130FA007A08CD06CE01CF0176085D
:101DE60077040319272FCC01CC0AF71B062F0130E5
:101DF6000310F60DF70DFF3E031DFB2E0130FA0012
:101E06007A08CC07F82E01300310CE0DCF0DFF3E19
:101E1600031D072F77087902031D132F7608780212
:101E2600031C1C2F7608F8027708031CF903F90235
:101E36004E1401300310F70CF60CFF3E031D1D2F48
:101E46000130CC02031D062F4D0803192F2FCE0992
:101E5600CF09CE0A0319CF0A4F08F7004E08F6003D
:101E66000800F8000B30F7002630F6006630F50063
:101E7600F50B3B2FF60B3B2FF70B3B2F422F78082A
:101E86000A128A15D1240A128A150130F10080300F
:101E9600F2000A128A1536240A128A157808F10009
:101EA6000030F2000A128A1536240A128A15F90140
:101EB600FA017A08803AFF0080307F02031D652F01
:101EC600033079020318080079087807F5007508C9
:101ED600840083130008F6007908B03E8400760873
:101EE60080007908033E7807F5007508840000082D
:101EF600F6007908B73E8400760880007908063E29
:101F06007807F500750884000008F6007908BE3EDB
:101F16008400760880000130F9070318FA0A0030B9
:101F2600FA075C2FF7003E30F1008030F2000A120B
:101F36008A1536240A128A1577080A128A15D124B8
:101F46000A128A15F801F9017908803AFF008030F3
:101F56007F02031DB02F033078020318DD2F7808A7
:101F66007707F5007508840083130008F6007808E3
:101F76006C3E8400760880007808033E7707F500FB
:101F8600750884000008F6007808C53E84007608C7
:101F960080000130F8070318F90A0030F9077908BC
:101FA600803AFF0080307F02031DDB2F033078026A
:101FB600031CB22F1630F1008030F2000A128A1587
:101FC60036240A128A156C30F1000030F2000A122B
:101FD6008A1536240A128A151F30F1008030F20065
:101FE6000A128A1536240A128A15C530F100003005
:0A1FF600F2000A128A1536240800D2
:04400E00F1E0FFFFDF
:00000001FF
