:100000000A128A11D92FFF1B0D2883137F1883171B
:100010000008840A0319FF0A080000308A00040857
:10002000840A82070034653463346F3420347234B8
:100030006934633465347A3469346F346E346534CA
:100040003A342034003474346F3464346F342034E0
:1000500058343A342034003474346F3464346F3498
:10006000203459343A3420340034653463346F34E6
:1000700058343A3420340034653463346F3459349E
:100080003A3420340034653463346F345A343A34AB
:1000900020340034653463346F343A34203400340F
:1000A00072346534613464347934003465346E34C8
:1000B000643400346F346B340034C834F60076088E
:1000C000F2007208F7007708840083130008031910
:1000D0006E280130F2007208F70763287608F200F4
:1000E0000030F300F209F309F20A0319F30A770862
:1000F000F4000030F50072087407F000730803186C
:10010000730A7507F1000800F7007608F10075081A
:10011000F0000A128A1169210A128A117703031D5D
:10012000A428831203138514051474080A128A156F
:10013000C8260A128A118312031385100514740845
:100140000A128A15C82608007708031D08008312C2
:1001500003138514051074080A128A15C8260A129A
:100160008A11831203138510051074080A128A1568
:10017000C8260800F7007608F1007508F0000A129A
:100180008A11B9210A128A117703031DDA28831212
:1001900003130914851674080A128A15C8260A1250
:1001A0008A11831203130910851674080A128A151E
:1001B000C82608007708031D0800831203130914DA
:1001C000851274080A128A15C8260A128A11831227
:1001D00003130910851274080A128A15C82608002C
:1001E000F7007608F1007508F0000A128A1109225A
:1001F0000A128A117703031D1029831203130715AE
:10020000871474080A128A15C8260A128A118312E2
:1002100003130711871474080A128A15C8260800E8
:100220007708031D0800831203130715871074084D
:100230000A128A15C8260A128A118312031307119B
:10024000871074080A128A15C8260800FB01FC01F1
:100250007308803AF6007108803A7602031D32294D
:1002600070087202031C4C297508803AF600730866
:10027000803A7602031D3E2972087402031C442949
:100280007508F800740847297308F8007208F70029
:100290007808FC00770863297508803AF600710831
:1002A000803A7602031D562970087402031C5C29EB
:1002B0007508FA0074085F297108FA007008F900DF
:1002C0007A08FC007908FB007C08F1007B08F0004C
:1002D000080070037104031D7229831203130512B1
:1002E00085110511023070067104031D7C298312EB
:1002F0000313051685110511033070067104031DE3
:100300008629831203130512851505110430700622
:100310007104031D90298312031305168515051119
:10032000053070067104031D9A2983120313051208
:1003300085110515063070067104031DA42983126A
:100340000313051685110515073070067104031D8A
:10035000AE298312031305128515051508307006A2
:100360007104031D08008312031305168515051576
:10037000080070037104031DC229831203130710C0
:1003800009118910023070067104031DCC298312F3
:100390000313071409118910033070067104031D3B
:1003A000D62983120313071009158910043070062B
:1003B0007104031DE0298312031307140915891022
:1003C000053070067104031DEA2983120313071018
:1003D00009118914063070067104031DF429831273
:1003E0000313071409118914073070067104031DE3
:1003F000FE298312031307100915891408307006AB
:100400007104031D080083120313071409158914CE
:10041000080070037104031D122A8312031388104D
:1004200008108711023070067104031D1C2A831204
:100430000313881408108711033070067104031D1C
:10044000262A8312031388100814871104307006BB
:100450007104031D302A83120313881408148711B2
:10046000053070067104031D3A2A831203138810A5
:1004700008108715063070067104031D442A831284
:100480000313881408108715073070067104031DC4
:100490004E2A83120313881008148715083070063B
:1004A0007104031D080083120313881408148715B0
:1004B000080083120313CF01F71F652AF609F70915
:1004C000F60A0319F70ACF01CF0AF91F702AF809B3
:1004D000F909F80A0319F90A0130FA007A08CF0677
:1004E000D001D101760877040319A72ACE01CE0ADC
:1004F000F71B862A01300310F60DF70DFF3E031D92
:100500007B2A0130FA007A08CE07782A01300310DE
:10051000D00DD10DFF3E031D872A77087902031DF8
:10052000932A76087802031C9C2A7608F80277083A
:10053000031CF903F902501401300310F70CF60CF8
:10054000FF3E031D9D2A0130CE02031D862A4F085F
:100550000319AF2AD009D109D00A0319D10A5108C9
:10056000F7005008F6000800F8000B30F7002630BE
:10057000F6006630F500F50BBB2AF60BBB2AF70B2D
:10058000BB2AC22A78080A128A15CD270A128A11B4
:100590000130F1008030F2000A128A1555270A1244
:1005A0008A117808F1000030F2000A128A155527E6
:1005B0000A128A11F901FA017A08803AFF008030A4
:1005C0007F02031DE52A0330790203180800790829
:1005D0007807F5007508840083130008F600790891
:1005E000B03E8400760880007908033E7807F50065
:1005F000750884000008F6007908B73E8400760884
:1006000080007908063E7807F50075088400000828
:10061000F6007908BE3E8400760880000130F907B4
:100620000318FA0A0030FA07DC2AF7003E30F1001E
:100630008030F2000A128A1555270A128A117708AB
:100640000A128A15CD270A128A11F801F9017908D0
:10065000803AFF0080307F02031D302B0330780288
:1006600003185D2B78087707F5007508840083135D
:100670000008F6007808C53E8400760880007808F7
:10068000033E7707F500750884000008F600780837
:10069000C83E8400760880000130F8070318F90A84
:1006A0000030F9077908803AFF0080307F02031D8F
:1006B0005B2B03307802031C322B1630F1008030A4
:1006C000F2000A128A1555270A128A11C530F10064
:1006D0000030F2000A128A1555270A128A111F30BB
:1006E000F1008030F2000A128A1555270A128A1189
:1006F000C830F1000030F2000A128A1555270800B0
:10070000831203133A08803AF0003408803A7002EA
:10071000031D8C2B330839020318A72B83120313F4
:100720003909F0003A09F100F00A0319F10A330817
:100730007007BB0034080318340A7107BC0020039B
:10074000031DA42BA0010800A001A00A0800831229
:1007500003133408803AF0003A08803A7002031D0F
:10076000B32B390833020318D22B83120313330936
:10077000F0003409F100F00A0319F10A3908700792
:10078000BB003A0803183A0A7107BC0020087D062E
:10079000031908002003031DCF2BA0010800A001AE
:1007A000A00A0800831203133A083406031DDA2B4B
:1007B00039083306031D08003309F0003409F1003D
:1007C000F00A0319F10A39087007BB003A08031848
:1007D0003A0A7107BC000800831203133E08803AEE
:1007E000F0003608803A7002031DF82B35083D02F0
:1007F0000318132C831203133D09F0003E09F10086
:10080000F00A0319F10A35087007BF00360803180B
:10081000360A7107C0002503031D102CA50108002E
:10082000A501A50A0800831203133608803AF000D8
:100830003E08803A7002031D1F2C3D083502031844
:100840003E2C831203133509F0003609F100F00A3B
:100850000319F10A3D087007BF003E0803183E0A5D
:100860007107C00025084506031908002503031D6C
:100870003B2CA5010800A501A50A0800831203135B
:100880003E083606031D462C3D083506031D0800AC
:100890003509F0003609F100F00A0319F10A3D08A4
:1008A0007007BF003E0803183E0A7107C000080029
:1008B00083120313D6000130D0000030D100D201E2
:1008C000D301D401D501D401D50156080A128A11E9
:1008D0005E200A128A117108831203135502031D48
:1008E000732C700854020318B32C54085504031DCC
:1008F000882C54085607FA007A0884002D30831398
:100900000006031D882CFF30D000FF30D100AC2C36
:1009100054085607FA007A08840083130008D03E72
:10092000CE00FF3003180030CF005308F10052080A
:10093000F0000A30F2000030F3000A128A15F126A6
:100940000A128A11831203134E087007D2004F084F
:1009500003184F0A7107D3000130D4070318D50AD2
:100960000030D507652C5308F1005208F0005108FB
:10097000F3005008F2000A128A15F126710883125A
:100980000313D3007008D2005308F9005208F8008E
:100990000800F901F71FDF2CF901F90AFF30F00018
:1009A000FF30F1007708F3007608F2000A128A158A
:1009B000F1260A128A117108F7007008F600FC018E
:1009C000FB01FA017708803AFF0080307F02031DA7
:1009D000EB2C64307602031C022D9C30F6070318C2
:1009E000F70AFF30F7070130F8007808FC07E22C1F
:1009F000F630F6070318F70AFF30F7070130F80062
:100A00007808FB077708803AFF0080307F02031DDB
:100A10000B2D0A3076020318F82C7608F8007808B7
:100A2000FA007C08031D1C2D7B08031D1C2D2030A3
:100A3000F8007808FB00202D3030F8007808FB071C
:100A40007C08031D282D2030F8007808FC002C2D90
:100A50003030F8007808FC073030F8007808FA07E2
:100A60007903031D392D2D300A128A1584260A12A6
:100A70008A1120307C060319432D7C080A128A153E
:100A800084260A128A1120307B0603194D2D7B081B
:100A90000A128A1584260A128A117A080A128A15FD
:100AA00084260800831203138501860187018801CB
:100AB0008901831603138501673086008030870023
:100AC0008801890183160317880189010A128A1592
:100AD000DC260A128A1183120313A001A00AA101C5
:100AE000A10AA201A20AA501A50AA601A60AA701B8
:100AF000A70AAA01AA0AAB01AB0AAC01AC0AEE0133
:100B0000DA300A128A1115230A128A11C5300A1224
:100B10008A1158240A128A11790883120313B0002B
:100B20007808AF003008F7002F08F6000A128A1183
:100B3000C9240A128A11C8300A128A1158240A12CA
:100B40008A11790883120313B2007808B1003208C1
:100B5000F7003108F6000A128A11C9240A128A1114
:100B6000D1300A128A15CD270A128A113830F100C5
:100B70008030F2000A128A1555270A128A11D130E4
:100B8000F1000030F2000A128A1555270A128A1164
:100B9000483083120313DD005D08F000D1300A12E3
:100BA0008A1578270A128A1170087104031DDE2D38
:100BB000D1300A128A11B4220A128A1144308312E7
:100BC0000313DD005D08F000D1300A128A15782782
:100BD0000A128A1170087104031DF22D8312031387
:100BE000EE01EE0A831203136E030319D42F0130B2
:100BF000D7000030D8000130D9000030DA00B03022
:100C00000A128A1158240A128A11790883120313CE
:100C1000DC007808DB000A128A1512270A128A11F2
:100C2000831203135808BA005708B9000A128A152C
:100C30008D260A128A112330F1008030F2000A1248
:100C40008A1555270A128A11831203133A08F700EE
:100C50003908F6000A128A11C9240A128A110130D1
:100C600083120313D7000030D8000130D9000030C0
:100C7000DA00B7300A128A1158240A128A11790848
:100C800083120313DC007808DB000A128A1512278E
:100C90000A128A11831203135808BE005708BD00B8
:100CA0000A128A158D260A128A112A30F100803024
:100CB000F2000A128A1555270A128A1183120313A9
:100CC0003E08F7003D08F6000A128A11C9240A12EC
:100CD0008A11BE300A128A1158240A128A11790820
:100CE00083120313C2007808C1000A128A158D26E8
:100CF0000A128A113130F1008030F2000A128A158E
:100D000055270A128A11831203134208F70041087B
:100D1000F6000A128A11C9240A128A110A128A11CB
:100D200080230A128A110A128A158D260A128A1144
:100D30001130F1008030F2000A128A1555270A128C
:100D40008A11831203133C08F7003B08F6000A12CD
:100D50008A11C9240A128A110A128A11EC230A1272
:100D60008A110A128A158D260A128A111A30F10088
:100D70008030F2000A128A1555270A128A1183124E
:100D800003134008F7003F08F6000A128A11C9242D
:100D90000A128A11831203133C08F1003B08F00089
:100DA0004008F3003F08F2004408F5004308F4004F
:100DB0000A128A1126210A128A117108831203135A
:100DC000E1007008E000E801E901EA01EB01E2015D
:100DD000E301EC01ED016108803ADD006D08803A25
:100DE0005D02031DF52E6C086002031C672F831241
:100DF00003136D08F1006C08F0003C08F3003B0899
:100E0000F2000A128A15B4260A128A117108831296
:100E10000313E9007008E8006D08F1006C08F000A9
:100E20004008F3003F08F2000A128A15B4260A129D
:100E30008A11710883120313EB007008EA00690835
:100E4000F1006808F0006B08F3006A08F20063081C
:100E5000F5006208F4000A128A1533270A128A1173
:100E60008312031368036904031D472F2108DD0063
:100E70005D08F4002208DE00DF015E08F5005F086F
:100E8000F60020080A128A1184200A128A1183129D
:100E900003136A036B04031D5E2F2608DD005D0843
:100EA000F4002708DE00DF015E08F5005F08F600A9
:100EB00025080A128A11BA200A128A1101308312F7
:100EC0000313EC070318ED0A0030ED07EB2E831235
:100ED0000313E401E5014208803ADD006508803A29
:100EE0005D02031D752F64084102031C972F8312B6
:100EF00003134608DD005D08AA002B08DD005D082D
:100F0000F4002C08DE00DF015E08F5005F08F60043
:100F10002A080A128A11F0200A128A11013083125B
:100F20000313E4070318E50A0030E5076B2F83126B
:100F30000313E601E7014208803ADD006708803AC2
:100F40005D02031DA52F66084102031CCA2F8312F0
:100F500003132A03031DAE2FAA01B02FAA01AA0A68
:100F60002B08DD005D08F4002C08DE00DF015E08C0
:100F7000F5005F08F6002A080A128A11F0200A120A
:100F80008A11013083120313E6070318E70A0030C1
:100F9000E7079B2F831203133A08B4003908B30004
:100FA0003E08B6003D08B5006E03031DB02D861146
:100FB0007F2DFD018313203084004E300A128A15E4
:100FC0007C260A128A11CB308400E1300A128A157D
:100FD0007C260A128A11CB30FD000F30FE00A230B1
:100FE000FF00A03084000A128A15A7260A128A116F
:100FF0000A128A115D20EF0083010A128A11522D14
:101CF80064008001840A04060319003404067D2E5A
:101D0800F000831203130C1E852E0C127008990024
:101D180008000D300A128A1584260A128A150A301C
:101D28000A128A158426080083120313981C9E2E13
:101D3800181218168C1E9E2E8C121A0808007E087F
:101D48008A007F088200A3260A128A158000840A66
:101D580004087D0603190034FF0A0319FE0AA72E9A
:101D68007108803AF4007308803A7402031DBE2E8D
:101D7800720870020318C52E0130F0000030F1001F
:101D88000800F001F1010800F200F3017208730283
:101D9800031808000330F1009730F000F00BD22E42
:101DA800F10BD22ED72E0130F0007008F307CA2E9F
:101DB8000C308316031399009A01831603178711B1
:101DC8008316031318111813981618128312031385
:101DD80098171813181698110800F401F501701CCB
:101DE800FB2E7208F4070318F50A7308F50701308B
:101DF8000310F20DF30DFF3E031DFC2E01300310FE
:101E0800F10CF00CFF3E031D032F70087104031D35
:101E1800F32E7508F1007408F0000800831203130C
:101E28005808F7005708F6005A08F1005908F0005A
:101E38005C08F3005B08F2000A128A15F1260A1200
:101E48008A157108F9007008F8000A128A115922D7
:101E5800770883120313D8007608D70008007208A1
:101E68007007F70073080318730A7107F800023047
:101E780077067804031D482F013083120313AB0043
:101E8800A600F6007608A10077037804031D080071
:101E9800023083120313AB00A600F6007608A100F7
:101EA8000800720883120313FF00710884000A12E5
:101EB8008A1103200A128A15003A031908007208C9
:101EC80083120313FF00710884000A128A11032089
:101ED8000A128A150A128A1584260A128A150130EE
:101EE800F1070318F20A552FF500822F0130F2008E
:101EF8007208F5070130F2007208F00775088400CF
:101F080083130008F200700884000A128A110D2059
:101F18000A128A15FF3A013E7207F3007308F400AB
:101F28007408031D9C2F750884000008031D7A2F70
:101F38007408F000F101F01BF103080001340034CB
:101F480002340034043400340834003410340034CB
:101F58002034003420340034203400343034303419
:101F68003034003400340034003430343034303409
:101F78000034003400340034303430343034003429
:101F880000340034003430343034303430343034B9
:101F98003034F200F3010A128A1598260A128A15BB
:101FA800F0007008F4000D3074060319DF2F0A30B2
:101FB8007406031DE72F73087207F0007008840089
:101FC80083138001080008307406031DF12F73087D
:101FD8000319F12F0130F302CF2F7408F0007308B2
:101FE8007207F100710884007008831380000130C3
:081FF800F0007008F307CF2F81
:04400E00F1E0FFFFDF
:00000001FF
